:020000040800F2
:10000000A007002059020008FD200008F520000884
:10001000F9200008DD0400080129000800000000A4
:100020000000000000000000000000004D22000859
:10003000ED04000800000000012100085122000822
:1000400073020008730200087302000873020008BC
:1000500073020008730200087302000873020008AC
:10006000730200087302000873020008E10400082C
:10007000730200087302000873020008730200088C
:10008000730200087302000873020008730200087C
:10009000730200087302000873020008730200086C
:1000A000730200087302000873020008730200085C
:1000B0007302000800000000000000007302000846
:1000C0007302000800000000000000007302000836
:1000D0000000000073020008730200080000000026
:1000E0007302000873020008000000000000000016
:1000F0000000000000000000000000000000000000
:100100000000000000000000000000007302000872
:1001100000000000000000007302000873020008E5
:1001200073020008730200087302000873020008DB
:100130007302000800000000000000000000000042
:1001400073020008730200087302000873020008BB
:1001500073020008730200087302000873020008AB
:100160007302000873020008730200080000000018
:100170007302000873020008000000000000000085
:1001800073020008730200087302000800F002F80E
:1001900000F052F814A696E8000CB244B344DA45D5
:1001A00001D100F049F8BAE80F000FA696E8300038
:1001B000A5EB040504EB0607AAEB0704A7F101076A
:1001C0004FEA15154FEA3414A4F10104AC4201D3EF
:1001D00000F032F813F0010F18BFFB1A43F00103CF
:1001E00000F001F8DBE71847303000005030000025
:1001F000103A24BF78C878C1FAD8520724BF30C853
:1002000030C144BF04680C607047000070470000B4
:100210000023002400250026103A28BF78C1FBD80F
:10022000520728BF30C148BF0B6070471FB502F0AE
:10023000BBFF1FBD10B510BD00F058F81146FFF709
:10024000F5FF02F05FFB00F076F803B4FFF7F2FF72
:1002500003BC00F07DF800000948804709480047CA
:10026000FEE7FEE7FEE7FEE7FEE7FEE7FEE7FEE766
:10027000FEE7FEE704480549054A064B70470000C3
:10028000552200088D010008A0010020A0070020D1
:10029000A0030020A00300204FF0000200B5134689
:1002A00094469646203922BFA0E80C50A0E80C5096
:1002B000B1F12001BFF4F7AF090728BFA0E80C5047
:1002C00048BF0CC05DF804EB890028BF40F8042B40
:1002D00008BF704748BF20F8022B11F0804F18BFAD
:1002E00000F8012B7047704770477047754600F063
:1002F0002BF8AE4605006946534620F007008546B8
:1003000018B020B5FFF7B6FFBDE820404FF000065B
:100310004FF000074FF000084FF0000BAC46ACE880
:10032000C009ACE8C009ACE8C009ACE8C00921F0DC
:1003300007018D46704710B50446AFF30080204694
:10034000BDE81040FFF781BF00487047180000204B
:1003500001491820ABBEFEE72600020070470000EE
:100360000146806A436D426D13F0500F08D0D206EB
:1003700048BF00F07FBBC06C426B0846104700BF0F
:1003800042F40071416501680B68CA681B0703D419
:10039000910707D500F060BA12F4406FFAD1C9682E
:1003A0008904F7D4416D21F480714165416DC90420
:1003B00048BF00F051BA416D41F00101416500F0C4
:1003C0004BBA0000806A416D41F040014165816D8A
:1003D00041F00401816500F04DBB0000806A00F02F
:1003E00047BB000070B582B0044600200190216830
:1003F0008A68D20711D14FF6C076C7F6FF768868B3
:1004000006F17F0210420BD0606D40F01000606575
:10041000A06D40F00100A065012002B070BD00BFDA
:100420008868304040F00100886040F20830C5F232
:1004300004000068000221D400F0E8FE21680A6888
:10044000D20717D1054602E00868C00712D18868B4
:10045000C00704D18868304040F00100886000F097
:10046000D5FE401B21680328EED30868C007EBD1F6
:10047000CAE700BF002002B070BD00BF40F2140008
:10048000C2F20000006842F663518009C0F23E519A
:10049000A0FB0101880900EB40000C2101EB80006A
:1004A000019001980028C7D0019801380190019867
:1004B0000028C1D001980138019001980028BBD0D4
:1004C00001980138019001980028B5D001980138B1
:1004D000019001980028E7D1AEE70000FEE7000098
:1004E00040F25410C2F2000000F084BC70470000DB
:1004F000EFF3108072B600BFFEE70000F0B581B0E8
:100500000022009290F85020012A03D102210846CF
:1005100001B0F0BD0123076880F85030BB685B076D
:1005200000F19A804B68052B06D8023B032B9ABF3B
:10053000C5A555F823300623C3F3012407EB840433
:100540000D68226B03F01F031F269E40B243C5F3C4
:10055000846606FA03F31A432263BA68BB6802F0A2
:10056000040203F00803D21840F091800A688B68F7
:10057000C2F3406607EB86067569C2F3045207248E
:100580009440A54303FA02F22A437261D1E904358B
:10059000FC68042B66D13A6E3A6E0B68C2F3846233
:1005A00093FAA3F6C3F3846C6FF3DF43B6FA86F5D0
:1005B000002B2C464FF6FF7E08BF6446A242C0F2D5
:1005C000070E0CD13A6E22F000423A660A6802EA3F
:1005D0000E03C2F3846C92FAA2F2B2FA82F57A6E3A
:1005E0007A6E002BC2F384622C4608BF6446A24296
:1005F0000CD17A6E22F000427A660A6802EA0E0393
:10060000C2F3846C92FAA2F2B2FA82F5BA6EBA6EB2
:10061000002BC2F384622C4608BF6446A2420CD170
:10062000BA6E22F00042BA660A6802EA0E03C2F30A
:10063000846C92FAA2F2B2FA82F5FA6EFA6E002B8C
:10064000C2F3846208BF6546AA4220D1FA6E22F046
:100650000042FA661BE000BF416D41F02001416598
:100660000121EAE0062202EA94020E6807EB830306
:1006700005FA02F21D6E4FF20004C0F2FF3406F0DC
:10068000F846254032432A4342F000421A66BA68CF
:100690000D68D20750D1CA68D7F8B0602B466FF307
:1006A000DF4326EA030C4FF6FF7602F01804C0F28F
:1006B0000706E64000242E40C4F27F0446EA0C06FA
:1006C000A242C7F8B06037D193B195FAA5F2B2FA59
:1006D00082F2013202F01E03092B02F01F0310D830
:1006E00001229A4003EB430342EA035315E000BFA3
:1006F000012202EB956202F01E030A2B02F01F0397
:10070000EED3012200269A4003EB4303CFF6206686
:1007100006EB03531A4342F00073C3F3406607EB42
:1007200086068A687569C3F3045307249C40A54371
:100730009A402A4372610D680021C8F208010D42F7
:100740007AD040F2083CC5F2040CDCF800400021ED
:10075000CCF252718D4204F0E07E08BF14F4000127
:1007600016D00021CCF684318D424DD10021B1EB61
:100770001E6F49D1ACF542718F425DD1DCF800109B
:1007800021F0E07141EA0E0141F0807152E000BFBA
:10079000ACF542718F424FD1DCF8001042F6635243
:1007A00021F0E07141EA0E0141F40001CCF80010A3
:1007B00040F21401C2F200010968C0F23E528909F8
:1007C000A1FB0212910901EB41010C2202EB810114
:1007D0000091009981B3009901390091009959B3B2
:1007E000009901390091009931B3009901390091C4
:1007F000009909B3009901390091009900294FF03F
:100800000001E8D119E000BFACF542718F424FF012
:10081000000112D10122C8F20002954208BF14F46F
:1008200080020AD1DCF8001021F0E07141EA0E01EB
:1008300041F48001CCF800100021002280F8502003
:10084000084601B0F0BD00BF0C000000120000001F
:100850001800000000010000F0B581B040F2F00087
:10086000C2F2000001884288C3881144828840F2A5
:1008700000071144028919444389114482891944AB
:10088000C3891144028A1944438A1144828A194453
:10089000C38A1144028B1944438B1144828B19443F
:1008A000C38B1144028C1944438C1144828C19442B
:1008B000C38C1144028D1944438D1144828D194417
:1008C000C38D1144028E1944438E1144828E194403
:1008D000C38E1144028F1944438F1144828F1944EF
:1008E000C38F1144B0F840201944B0F8423011448D
:1008F000B0F844201944B0F846301144B0F848200C
:100900001944B0F84A301144B0F84C201944B0F8FA
:100910004E301144B0F850201944B0F85230114410
:10092000B0F854201944B0F856301144B0F85820AB
:100930001944B0F85A301144B0F85C201944B0F8AA
:100940005E301144B0F860201944B0F862001144E0
:10095000084448F21F51C5F2EB11A0FB0101C2F29D
:100960000007387840F278060909C2F2000601282B
:10097000B18009D1A1F2BD2010F5C97FF1809CBFE3
:10098000012070800020387088B2318102F00DFAA9
:100990009FED2F0B044653EC102B0D4602F018FA76
:1009A0009FED2D0B53EC102B02F028F902F0F4F818
:1009B0009FED2B0BF06053EC102B2046294602F0E4
:1009C00007FA9FED290B53EC102B02F017F902F0F8
:1009D000BDF9B0F1FF3F30610EDDB0F5807F11D37E
:1009E00048F28101C8F28001A0FB0112D10900EB9D
:1009F000D210F971387209E000243461A7F8074079
:100A000005E000BF0021F97138727180012440F2C5
:100A10000045C4F6000528462021224600F0F0FBE0
:100A200028461021002200F0EBFB30693470B0F54D
:100A30002F7F05DD28461021012200F0E1FB3069FF
:100A400001B0BDE8F04001F039BD00BF00BF00BFFC
:100A5000924E6E2585C33C3F2D431CEBE236D2BF40
:100A6000DE9387855AD3D43F6666666666A669C0FC
:100A70007047000070470000B0B582B00021002828
:100A8000019155D0416D39B9044600F0E5F8204692
:100A90000021A16584F850100268916889004FF622
:100AA000C071C5F6FF7102D593680B4093609368DF
:100AB000DB002ED4936801F18051194041F0805140
:100AC000916040F21401C2F20001096842F66353DA
:100AD0008909C0F23E53A1FB03139909022303EBDA
:100AE000410101910199A1B1019901390191019946
:100AF00079B1019901390191019951B101990139F6
:100B00000191019929B101990139019101990029B6
:100B1000EAD19168C90011D4416D4FF0010E41F046
:100B200010014165816D41F00101816508E000BF60
:100B30004FF0010E704602B0B0BD00BF4FF0000E86
:100B40009368446D03F0040304F010041B19436D13
:100B500064D123F48173023343659368DB0712D1B8
:100B600040F208334FF60054C5F20403CFF6FF7489
:100B70001C59E40707D1D0F804C01C6824F47C1485
:100B800044EA0C041C60437E446BD0E902C144EA91
:100B90004333194390F8203041EA0C01012B41EA1C
:100BA000034306D1416A0024CFF6FE7404EB4141B1
:100BB0000B43846A24B1C16A04F4707421430B436B
:100BC000D1684CF20704CFF6F07421401943D1608C
:100BD000916809072DD490F83030017E5B0090F8C1
:100BE00038C043EA8131D36844F20204A343194375
:100BF000D1601369BCF1010F18D140F2FD7123EAF5
:100C0000010CD0E90F34D0E9111543EA0C0323435A
:100C10001943294341F001030AE000BF43F01002E9
:100C20004FF0010E4265704602B0B0BD23F00103E3
:100C300013610169136B012923F00F0302D1C1690C
:100C400001390B431363426D012161F301024265D7
:100C5000704602B0B0BD000070B59CB004460020E4
:100C60001B90CDE91900CDE9170002A820303421EE
:100C7000FFF712FB20680021C5F20401884201D071
:100C80001CB070BD4FF4804002904FF08050149023
:100C900010200590072006900220CDE907004FF0B4
:100CA00080700125099002A8CDE9035500F0B0FB42
:100CB000002818BFFFF71CFC41F24C00C4F20200F0
:100CC0000168002641F400510160016801F40051FF
:100CD00001910199016841F001010160006817A9C3
:100CE00000F00100019001980B2018904FF0904007
:100CF0001795199600F0A2F940F254150820C2F297
:100D00000005C4F202008021C5E9000605F11000CB
:100D10004FF480724FF480634FF0200C80E80E1087
:100D20002846C5E902662E6200F0BAF8002818BF0E
:100D3000FFF7DEFBE564AC621CB070BD70B5036804
:100D40009B685B0703D490F85030012B02D102203E
:100D500070BD00BF0D460121144680F850100646B4
:100D6000FFF740FB20B1002086F85000012070BD45
:100D7000706D40F60171884300F580707065706D8C
:100D80003246C0044FF0000044BF906D20F00600D2
:100D90009065D06C40F2613640F2DD311368C0F6E8
:100DA0000006C0F6000140F2C53E4FF0000CC0F650
:100DB000000EC0E90B611C21C0F834E0196082F814
:100DC00050C05968164641F010015960D9682A464A
:100DD00041F00101D96003F14001234600F0C6F85B
:100DE00031684FF6C0738A68C7F6FF731A40043241
:100DF0008A6070BDB0B5D0E910C30268DCF800109D
:100E000003F01C030424D2F800E09C400C4218BFFD
:100E10001EF0040520D102249C400C4218BF1EF095
:100E2000020529D1D940090714D51EF0080108BFD1
:100E3000B0BD116821F00E011160012101FA03F229
:100E4000CCF80420C16380F82510416B002280F8A3
:100E5000242069B9B0BD00BF1168890603D41168A8
:100E600021F004011160CCF80440016B0029F1D09D
:100E7000BDE8B040084700BF1168890606D4116874
:100E800021F00A011160012180F82510CCF80440FE
:100E9000C16A0022002980F82420E9D1DAE70000A5
:100EA000002804BF012070472DE9F04740F2000CF4
:100EB000C4F2020C02684FF6F8310CF5816ECBF6E5
:100EC000FD71724538BF01F580614CF6CD43114488
:100ED000CCF6CC43A1FB03136FF0030100F108092A
:100EE0000CF5806701EA930A4FF0020399E81003BA
:100EF0003CBF0027C4F20207C0E9107A80F8253011
:100F0000136847F6F077BB43D0E9057543EA080359
:100F100043EA0903D0E907613B432B4333431943B9
:100F20002143B4F5804F116015D04FF495640AF059
:100F30001C010F23724538BFA8245CF804208B40A5
:100F40009A434CF8042042685CF8043002FA01F13C
:100F500019434CF8041000210122C16380F82520B8
:100F600080F824100020BDE8F087000090F824C02D
:100F7000BCF1010F04BF02207047F0B54FF0010E25
:100F800080F824E090F825C0BCF1010F2AD14FF081
:100F9000020C80F825C04FF0000CC0F83CC0D0F81F
:100FA00000C08468056B066CDCF80070102C27F01C
:100FB0000107CCF80070406C00F01C000EFA00F045
:100FC00070600846CCF8043004BF10460A46CCF8DE
:100FD0000800CCF80C20DCF800004DB140F00E0009
:100FE0000EE000BF002180F824100220F0BD00BFF9
:100FF00020F00400CCF80000DCF8000040F00A000B
:10100000CCF80000DCF8000040F00100CCF8000053
:101010000020F0BDB0B5044600F0F8F8054640F2F7
:101020000C00C2F200000078611C18BF044400BF2D
:1010300000F0ECF8401BA042FAD3B0BD2DE9F04F10
:1010400083B00C68002C00F0CF8000F1200240F249
:10105000004E009240F60002C4F2010EC4F60002F7
:101060000723002500274FF00008904208BF022305
:1010700001934DE040F20042C4F60002DDF8049016
:10108000904208BF4FF0010905F00C060F22B24054
:101090002CEA020209FA06F64FEA9803324344F8B2
:1010A0002320DEF808204B6842EA0A0640F20C4C86
:1010B000DC0258BF22EA0A06CEF80860C4F2010C2E
:1010C000DCF800209C0242EA0A0658BF22EA0A061F
:1010D000CCF80060DEF804209C0342EA0A0658BF00
:1010E00022EA0A06CEF80460DEF80020DB0342EABA
:1010F0000A0658BF22EA0A06CEF800600C6808F11A
:10110000010834FA08F207F1020705F104056BD073
:10111000012202FA08FC14EA0C0AEFD0D1F804B05C
:1011200003230BF00304621E03FA07F6012A6FEA99
:10113000060911D88268CE6802EA0902BE4032432D
:1011400082604268CBF3001622EA0C0206FA08F627
:101150003243426004E000BF032C01D103241EE0AF
:10116000C2688E6802EA0902BE403243022CC260A5
:1011700015D16FF0030202EA580B009A05F01C0427
:1011800052F80BC00F230E69A3402CEA0303A640BC
:10119000334342F80B30D1F804B00BF0030402687B
:1011A00004FA07F302EA09021A431BF4403F026003
:1011B000A4D041F26003C4F202031A68AEF57E7453
:1011C00042F001021A601A68B0F1904F02F0010279
:1011D0000292029A28F0030254F802C07FF44AAF48
:1011E0004FF0000950E700BF03B000F000B830BC7A
:1011F000BDE8C08F0069084018BF0120704700009B
:101200001823002A08BF2823C150704740F29C10C1
:10121000C2F200000068704740F20C0040F29C11DE
:10122000C2F20000C2F2000100780A6810440860AF
:101230007047000080B5032000F08CF8002000F01B
:1012400009F800281CBF012080BD00F02BF8002009
:1012500080BD0000B0B540F20C05C2F2000529784F
:10126000F1B1044640F21400C2F200004FF47A7269
:101270000068B2FBF1F1B0FBF1F000F025FF014690
:101280000F2C4FF001000AD8002918BFB0BD4FF055
:10129000FF302146002200F031F800206C60B0BD24
:1012A0000120B0BD82B041F25800C4F20200816852
:1012B00041F001018160816801F001010191019912
:1012C000016841F080510160006800F0805000909A
:1012D000009802B070470000002848BF704700F037
:1012E0001F01012202FA01F11C2202EAD0004EF293
:1012F0000012CEF2000281507047000010B54EF689
:101300000C5CCEF2000CDCF80030C3F3022E8EF041
:101310000704042C28BF0424BEF103034FF0FF3E52
:101320000EFA04F438BF0023A14399400EFA03F3E8
:101330009A43114300F00F0200F160430901043A9F
:1013400003F564436244002848BF02F10C0319709E
:1013500010BD00004EF60C51CEF200010A684FF6A7
:10136000FF031A4060F30A2242F0806040F0FD70F3
:101370000860704747F20001C4F200010A68B0F546
:10138000007F02F4C06031D1B0F5007F2CD0086836
:10139000012262F34A20086040F21400C2F2000009
:1013A0000068322250434DF68362C4F21B32A0FB28
:1013B0000202900C4A69520511D5421C0FD04A69AD
:1013C00052050CD558B14A69520508D5012806D0F6
:1013D0004A69520503D50228A0F10400EAD1486900
:1013E000400544BF0320704700207047B0F5806F70
:1013F000FAD00868022262F34A2008600020704791
:1014000047F20000C4F20000006800F4C0607047BA
:101410002DE9F04381B00446407841F28807000787
:10142000C4F202071ED5E06B80B1B0F5400F14D0B6
:10143000B0F5000F40F0148157F87C0C40F4803078
:1014400047F87C0C4FF4000007E000BF201D00218E
:1014500000F058FE814638B9E06B396821F440014C
:10146000084338604FF00009A078800752D557F83C
:10147000300C5FEAC0080BD457F8300C40F08050B5
:1014800047F8300C57F8300C00F08050009000986E
:1014900047F20005C4F20005286840F48070286017
:1014A000FFF7B4FE064600BF2868C00508D4FFF762
:1014B000ADFE801B0228F7D94FF0030921E000BFE1
:1014C000B9F1000F1DD1B86810F4407011D0216D32
:1014D00088420BD0B868B96820F4407041F480317C
:1014E000B960B96821F48031B960B860C00740F0D4
:1014F000BF80B868216D20F4407008434FF00009A8
:10150000B860B8F1000F05D457F8300C20F08050C7
:1015100047F8300C2168C8070ED1880714D4880614
:101520001AD4880520D4480526D448062CD4C805EA
:1015300032D4880438D449E03868226A20F00300A5
:10154000104338608807EAD53868626A20F00C00DA
:10155000104338608806E4D53868A26A20F44060F9
:10156000104338608805DED53868626B20F440206F
:10157000104338604805D8D53868A26B20F4401075
:10158000104338604806D2D53868E26A20F44050EB
:1015900010433860C805CCD53868226B20F4403041
:1015A00010433860880411D53A68206C22F04062FC
:1015B0000243B0F1806F3A601ED0B0F1006F05D1E8
:1015C00057F87C0C40F4801047F87C0C480327D572
:1015D0003A68606C22F040620243B0F1806F3A607A
:1015E00016D0B0F1006F1BD157F87C0C40F480107E
:1015F00047F87C0C14E000BF201D012100F082FDA3
:101600002168002818BF81464803E1D408E000BFE4
:10161000201D012100F076FD2168002818BF8146B9
:10162000480410D53868A26C20F040501043B2F145
:10163000805F386007D1201D022100F063FD216822
:10164000002818BF8146080405D53868E16C20F0F1
:10165000804008433860484601B0BDE8F08300BFD1
:101660004FF00109A07880073FF501AF52E700BFB6
:10167000FFF7CCFD064641F288354FF0030900BF65
:10168000B86880073FF535AFFFF7C0FD801BA84263
:10169000F6D936E72DE9F04381B0002800F08C80C0
:1016A00042F20009C4F202090446D9F8000000F031
:1016B000070088420CD2D9F8000020F00700084348
:1016C000C9F80000D9F8000000F00700884273D183
:1016D000206841F2080610F00202C4F202060AD0A5
:1016E000A368376807F0F007BB4204D9376827F0D2
:1016F000F0073B433360C30734D0606856F8082CCA
:1017000050B1022804D003280AD192010AD453E030
:10171000920307D450E000BF920703D44CE000BF0F
:10172000520549D58846316821F0030108433060ED
:10173000FFF76CFD054641F2883700BF30686168ED
:1017400000F00C00B0EB810F08D0FFF75FFD401BED
:10175000B842F3D9032001B0BDE8F08320684146C8
:1017600000F0020252B1A268336803F0F0039A421B
:1017700004D2336823F0F0031A433260D9F8002012
:1017800002F007028A420CD9D9F8002022F00702A1
:101790000A43C9F80020D9F8002002F007028A4263
:1017A0000AD141070CD4000712D43068716810F0D8
:1017B0000C0019D11EE000BF012001B0BDE8F0838C
:1017C0003168E26821F4E061114331600007ECD533
:1017D0003068216920F4605040EAC1003060306810
:1017E000716810F00C0005D00C282BD101F003011A
:1017F000012927D156F8081C042211F008016FF0C6
:10180000070108BF8C21715808BF0822D14043F25C
:10181000DC1201F00F01C0F6000252F8211000287E
:101820000A4618BF00220C2838D1706800F0030067
:10183000022811D0032804BF41F20021C0F27A012E
:101840000EE000BF04281FD0082823D141F2002257
:10185000C0F27A0222E000BF42F20041C0F2F4017D
:1018600070687268C0F30210C2F3062251437268B6
:101870000130B1FBF0F0C2F34161022202EB410101
:10188000B0FBF1F20AE000BF42F20042C0F2F40203
:1018900004E000BF002200210C28C6D0306843F2CB
:1018A000CC11C0F30310C0F60001085C00F01F006B
:1018B00022FA00F140F21000C2F2000040F21402DD
:1018C0000068C2F20002116001B0BDE8F043FFF70A
:1018D000C1BC0000002804BF012070472DE9F0437F
:1018E00083B041F200060446C4F20206B068F16813
:1018F000227800F00C09D00601F003081ED42078ED
:10190000C00700F08880B9F1080F00F07D80B9F1C0
:101910000C0F08BFB8F1030F76D061683068B1F5DD
:10192000803F07D0B1F5A02F40F0528240F48020D4
:101930003060306840F48030306053E2B9F1000F1D
:101940001CD0B9F10C0F08BFB8F1010F16D0A16976
:101950003068002900F0A08140F001003060FFF7FE
:1019600055FC05463068800700F1A881FFF74EFC62
:10197000401B02284FF00300F4D960E33068800771
:1019800003D5A069002800F00F83256A306800079E
:1019900000F14A81D6F89400000900F0F000854279
:1019A00000F248813068B9F1000F40F00800306063
:1019B000306820F0F00040EA050030607068E169AE
:1019C00020F47F4040EA0120706040F0B882B06DA2
:1019D000C00000F15582B06D40F08050B065B06D30
:1019E00000F0805002900298FFF70AFDB16D21F0DF
:1019F0008051B165B0F5007F00F04882802D40F243
:101A0000858203208DE200BF3068800303D56068C3
:101A1000002800F0C982207880072DD5B9F1040F85
:101A20001CD0B9F10C0F08BFB8F1020F16D0E16855
:101A30003068002900F0E68140F480703060FFF7E4
:101A4000E5FB0546306840050FD4FFF7DFFB401B80
:101A500002284FF00300F5D9F1E200BF30684005DD
:101A600003D5E068002800F09F827068216920F0AB
:101A7000F85040EA016070602078000760D4207858
:101A8000400779D42078800600F1B280A06A00284F
:101A900000F01683022840F02381F068E16A00F02C
:101AA00003028A4240F03481226B6FF00F0300F092
:101AB000700103EB0212914240F02A81616B00F445
:101AC000FE42B2EB012F40F02381A16B00F078427F
:101AD000B2EBC16F40F01C81E26B0023CFF6E073E4
:101AE00003EA025200F4C001A2F50012914240F054
:101AF0000F81216C4FF07E4202EA016100F0C0606C
:101B000001F17E41884240F003813068800100F19C
:101B1000D782306840F080703060F06840F08070AC
:101B2000F060FFF773FB04463068800100F1C88263
:101B3000FFF76CFB001B02284FF00300F4D97EE294
:101B40006169D6F89400002900F0908040F001000F
:101B5000C6F89400FFF75AFB054600BFD6F894007C
:101B600080078CD4FFF752FB401B0228F6D90320D4
:101B700003B0BDE8F08300BFB06D5FEAC00808D4D1
:101B8000B06D40F08050B065B06D00F080500090B6
:101B9000009847F20007C4F200073868C00513D464
:101BA000386840F480703860FFF730FB054600BFAE
:101BB0003868C00508D4FFF729FB401B02284FF006
:101BC0000300F5D93BE200BFA168D6F890000129D7
:101BD00008D0052940F0DC8040F00400C6F89000F1
:101BE000D6F8900040F00100C6F89000DCE000BF9D
:101BF000616AD6F89800002900F0B48040F0010036
:101C0000C6F89800FFF702FB054600BFD6F898001B
:101C100080073FF53BAFFFF7F9FA401B02284FF072
:101C20000300F3D90BE200BF306800F0F0008542FA
:101C30007FF6B8AEB06DC00000F18680B06D40F0A8
:101C40008050B065B06D00F0805001900198FFF7B2
:101C5000D7FBB16D21F08051B165B0F5007F79D02F
:101C6000802D40F2E1800320E9E000BF20F0010078
:101C7000C6F89400FFF7CAFA054600BFD6F89400EC
:101C800080077FF5FCAEFFF7C1FA401B02284FF03A
:101C90000300F3D9D3E100BF20F001003060FFF76B
:101CA000B5FA0546306880077FF529AEFFF7AEFA32
:101CB000401B02284FF00300F4D9C0E1306840F027
:101CC000080030603068D4E9071220F0F0001043BB
:101CD0003060706820F47F4040EA012070600EE6BA
:101CE000B9F10C0F00F06081306820F08070306036
:101CF000FFF78CFA044600BF3068800140F1EA80AB
:101D0000FFF784FA001B02284FF00300F4D996E194
:101D1000B9F10C0F00F048813068400100F14481B6
:101D2000306820F080703060FFF770FA054600BF21
:101D30003068800140F18681FFF768FA401B022875
:101D40004FF00300F4D97AE1FFF75AFBB0F5007FBA
:101D50007FF486AF812D71D30120A02D88BF022092
:101D60006DE000BF20F00100C6F89800FFF74EFAC2
:101D7000054600BFD6F8980080077FF587AEFFF7CD
:101D800045FA401B02284FF00300F3D957E100BF8A
:101D900020F00100C6F89000D6F89000002920F04D
:101DA0000400C6F8900079D0FFF730FA054641F2FA
:101DB000883700BFD6F89000800700F18180FFF7D8
:101DC00025FA401BB842F5D9032003B0BDE8F083E3
:101DD00020F4803030603068002920F480203060AA
:101DE00000F08480FFF712FA054600BF30688003D8
:101DF0003FF511AEFFF70AFA401B64284FF00300CD
:101E0000F4D91CE120F480703060FFF7FFF905463B
:101E1000306840057FF530AEFFF7F8F9401B022827
:101E20004FF00300F4D90AE1A5F17000B0FA80F098
:101E30004009802D08BF022001E000BF002042F2CF
:101E40000001C4F202010A6822F0070202440A609B
:101E5000096801F00701814240F0A680306840F037
:101E6000080030603068D4E9071220F0F000104319
:101E70003060706820F47F4040EA012070605EE0CE
:101E8000FFF7BEFAB0F5007F7FF4B8AD812D47D3E0
:101E90000120A02D88BF022043E000BFFFF7B6F964
:101EA000054641F2883700BFD6F89000800707D575
:101EB000FFF7ACF9401BB8424FF00300F4D9BEE085
:101EC000B8F1000F3FF5DEADB06D20F08050B06589
:101ED000D8E500BFF0684FF6FC71CFF6EE61084020
:101EE000F060002003B0BDE8F08300BFFFF78EF97B
:101EF000054600BF306880037FF58DADFFF786F99A
:101F0000401B64284FF00300F4D998E0A5F170005D
:101F1000B0FA80F04009802D08BF022001E000BF28
:101F2000002042F20001C4F202010A6822F0070216
:101F300002440A60096801F00701814234D1B068A7
:101F4000F16810F00C0005D00C2831D101F003012C
:101F500001292DD1314651F8942B12F00802324656
:101F600008BF0A464FF00401126808BF082122FA90
:101F700001F143F2DC1201F00F01C0F6000252F849
:101F8000211000280A4618BF00220C283CD1F06816
:101F900000F00300022815D0032804BF41F20021FD
:101FA000C0F27A0112E000BF012003B0BDE8F08367
:101FB00004281FD0082823D141F20022C0F27A025F
:101FC00022E000BF42F20041C0F2F401F068F26882
:101FD000C0F30210C2F306225143F2680130B1FB94
:101FE000F0F0C2F34161022202EB4101B0FBF1F2D9
:101FF0000AE000BF42F20042C0F2F40204E000BF77
:10200000002200210C28C2D0B06843F2CC11C0F3EA
:102010000310C0F60001085C00F01F0022FA00F176
:1020200040F21000C2F2000040F214020068C2F256
:1020300000021160FFF70EF900283FF460AC03B016
:10204000BDE8F083F06848F28C01C0F29D1104F104
:102050002C0700EA010C8ECF6FF00F00D4E90F546B
:1020600000EB02100022CFF6E07241EA0C0102EA16
:1020700005520843A2F500124FF07E4540EA0320C6
:1020800005EA0465104305F17E4540EAC760284330
:10209000F060306840F080703060F06840F0807030
:1020A000F060FFF7B3F804463068800108D4FFF70A
:1020B000ADF8001B02284FF00300F5D9BFE700BFC1
:1020C000002003B0BDE8F083411E0020B0EB116F8B
:1020D0001CBF012070474EF21002CEF20002516088
:1020E0004EF62351CEF20001F0230B7007219060D1
:1020F00011607047FEE70000FEE70000FEE7000009
:1021000070470000F0B581B041F20005C4F202054D
:10211000EA68920714D0EA68036802F003029A4260
:102120004FF0010208D13BB1EA684368C2F30212E2
:1021300001329A422AD00122104601B0F0BD00BF00
:102140000268032A10D0022A06D0012A07D12B6880
:102150009B0710D403E000BF2B685B050BD4012262
:10216000104601B0F0BD00BF2B689B035CBF2B681D
:102170005FEA4333F3D5EB6847686FF00F0623F04F
:10218000730306EB07173B431A43EA6006462868C9
:102190000F4620F080602860FFF738F8044600BF43
:1021A0002868000108D5FFF731F8001B0228F7D98D
:1021B0000322104601B0F0BD2969B0683246012FF4
:1021C0004FEA002008D0BFB948F2FF03D268C0F23E
:1021D000FF731940D2061BE048F2FF03CFF6FF134E
:1021E00003F1B463194012690023CFF6E07303EAE8
:1021F0000252A2F500120BE048F2FF03CFF6FF13E4
:10220000526919404FF07E4303EA026202F17E42B6
:10221000084310432861286840F080602860FEF77A
:10222000F5FF04462868000108D4FEF7EFFF001B05
:102230000228F7D90322104601B0F0BDB069296920
:10224000002208432861104601B0F0BD704700002D
:10225000FEF7E2BF4EF68850CEF20000016841F46E
:1022600070010160704700002DE9F04140F2004428
:10227000C4F60004054641F204062046012101226D
:10228000CEF20006FEF7BCFF204602210122FEF737
:10229000B7FF40F21408C2F200083068D8F8001006
:1022A0004DF68367C4F21B37A1FB07126FF00101E3
:1022B00001EA52413268121A8A420BD23268121A6B
:1022C0008A4207D23268121A8A4203D23268121A3C
:1022D0008A42EFD3204602210022FEF791FF4020E0
:1022E00000F076F9204601210022FEF789FF204602
:1022F00002210022FEF784FF204601210122FEF781
:102300007FFF3068D8F80010A1FB07126FF00101C1
:1023100001EA52413268121A8A420BD23268121A0A
:102320008A4207D23268121A8A4203D23268121ADB
:102330008A42EFD3204602210122FEF761FF2046A8
:1023400001210122FEF75CFF204602210122FEF757
:1023500057FF3068D8F80010A1FB07126FF0010199
:1023600001EA52413268121A8A420BD23268121ABA
:102370008A4207D23268121A8A4203D23268121A8B
:102380008A42EFD3204602210022FEF739FFC02007
:1023900000F01EF9287800F01BF9687800F018F9B1
:1023A000A87800F015F9E87800F012F9204601212C
:1023B0000022FEF725FF204602210022FEF720FF23
:1023C000204601210122FEF71BFF3068D8F80010DB
:1023D000A1FB07126FF0010101EA52413268121AA3
:1023E0008A420BD23268121A8A4207D23268121A13
:1023F0008A4203D23268121A8A42EFD3204602215F
:102400000122FEF7FDFE204601210122FEF7F8FE23
:10241000204602210122FEF7F3FE3068D8F80010B2
:10242000A1FB07126FF0010101EA52413268121A52
:102430008A420BD23268121A8A4207D23268121AC2
:102440008A4203D23268121A8A42EFD3204602210E
:102450000022FEF7D5FE8F2000F0BAF820460121B9
:102460000022FEF7CDFE204602210022FEF7C8FE24
:10247000204601210122FEF7C3FE3068D8F8001083
:10248000A1FB07126FF0010101EA52413268121AF2
:102490008A420BD23268121A8A4207D23268121A62
:1024A0008A4203D23268121A8A42EFD320460221AE
:1024B0000122BDE8F041FEF7A3BE000010B582B0D6
:1024C00044F6D351C1F2620150FB01F18A1146F288
:1024D000676C02EBD171C6F2666C51FB0CF39A107B
:1024E00002EBD37202EB8202A1EB420148F21F52CF
:1024F000C5F2EB1250FB02F2531103EBD27252FB06
:102500000CF35FFA81FE991001EBD37101EB8101AD
:1025100043F20C24A2EB4101C0F60004C9B2615C95
:1025200014F80E308DF8051050FB0CF18A1002EBF8
:10253000D17151FB0CF28DF80430931003EBD27281
:1025400002EB8202A1EB420201EB8101A0EB410010
:10255000C0B2D2B2205CA25C8DF8070001A88DF851
:102560000620FFF781FE02B010BD0000B0B586B0B6
:1025700000200590CDE90300CDE9010041F24C00B7
:10258000C4F20200016840F2004441F00101016020
:102590000168C4F6000401F001010091009901688E
:1025A00001AD41F0020101600068294600F002001F
:1025B000009000980120CDE901002046FEF73EFD85
:1025C0000220019020462946FEF738FD06B0B0BD36
:1025D0002DE9F04140F20044C4F60004054641F202
:1025E0000406204601210022CEF20006FEF708FE76
:1025F00005F0010220460221FEF702FE20460121DD
:102600000122FEF7FDFD40F21408C2F20008306816
:10261000D8F800104DF68367C4F21B37A1FB0712F0
:102620006FF0010101EA52413268121A8A420BD25C
:102630003268121A8A4207D23268121A8A4203D2C8
:102640003268121A8A42EFD3204601210022FEF797
:10265000D7FDC5F3400220460221FEF7D1FD2046FA
:1026600001210122FEF7CCFD3068D8F80010A1FB53
:1026700007126FF0010101EA524100BF3268121ADD
:102680008A420BD23268121A8A4207D23268121A70
:102690008A4203D23268121A8A42EFD320460121BD
:1026A0000022FEF7ADFDC5F3800220460221FEF7B1
:1026B000A7FD204601210122FEF7A2FD3068D8F8CF
:1026C0000010A1FB07126FF0010101EA524100BFA7
:1026D0003268121A8A420BD23268121A8A4207D220
:1026E0003268121A8A4203D23268121A8A42EFD32F
:1026F000204601210022FEF783FDC5F3C0022046DB
:102700000221FEF77DFD204601210122FEF778FD22
:102710003068D8F80010A1FB07126FF0010101EA40
:10272000524100BF3268121A8A420BD23268121A22
:102730008A4207D23268121A8A4203D23268121AC7
:102740008A42EFD3204601210022FEF759FDC5F34E
:10275000001220460221FEF753FD204601210122EE
:10276000FEF74EFD3068D8F80010A1FB07126FF09D
:10277000010101EA524100BF3268121A8A420BD2AB
:102780003268121A8A4207D23268121A8A4203D277
:102790003268121A8A42EFD3204601210022FEF746
:1027A0002FFDC5F3401220460221FEF729FD2046E9
:1027B00001210122FEF724FD3068D8F80010A1FBAA
:1027C00007126FF0010101EA524100BF3268121A8C
:1027D0008A420BD23268121A8A4207D23268121A1F
:1027E0008A4203D23268121A8A42EFD3204601216C
:1027F0000022FEF705FDC5F3801220460221FEF7F8
:10280000FFFC204601210122FEF7FAFC3068D8F8CF
:102810000010A1FB07126FF0010101EA524100BF55
:102820003268121A8A420BD23268121A8A4207D2CE
:102830003268121A8A4203D23268121A8A42EFD3DD
:10284000204601210022FEF7DBFCEA092046022196
:10285000FEF7D6FC204601210122FEF7D1FC3068AC
:10286000D8F80010A1FB07126FF0010101EA5241F4
:102870003268121A8A420BD23268121A8A4207D27E
:102880003268121A8A4203D23268121A8A42EFD38D
:10289000204601210022FEF7B3FC2046022101223E
:1028A000FEF7AEFC204601210122FEF7A9FC3068AC
:1028B000D8F80010A1FB07126FF0010101EA5241A4
:1028C0003268121A8A420BD23268121A8A4207D22E
:1028D0003268121A8A4203D23268121A8A42EFD33D
:1028E00020460221FEF786FC0546204601210022F3
:1028F000FEF786FCB5FA85F04009BDE8F0810000DE
:10290000FEE7000096B0FEF795FC05A804302421F0
:10291000FDF7C2FC4FF40070FEF72CFD20B1EFF381
:10292000108072B6FEE700BF1020602105900120E4
:102930000D9102210B90CDE90F10119028201290DB
:1029400007200024CDE9130105A80C941591FEF78A
:10295000C1FF28B1EFF3108072B600BFFEE700BFE1
:102960000F2000900320CDE9010468460421CDE941
:1029700003444FF00408FEF78DFE28B1EFF31080FA
:1029800072B600BFFEE700BF002741F24C06099770
:10299000CDE90777CDE90577C4F20206306840F249
:1029A000004440F0010030603068C4F6000400F0DC
:1029B0000100009000983068332140F00200306040
:1029C0003068002200F00200009000982046FEF7D8
:1029D00017FC4FF090404FF4006100224FF4006A62
:1029E000FEF70EFC05AD4FF0010920462946CDE962
:1029F0000599CDE90779FEF721FB0220CDE905090C
:102A0000CDE9077020462946FEF718FB4FF09040AD
:102A10002946CDE905A9CDE90777FEF70FFB302060
:102A2000CDE9050920462946CDE90777FEF706FBE3
:102A300056F8040C002140F0010046F8040C56F84A
:102A4000040C002200F00100059005980B20FEF711
:102A500055FC0B20FEF740FC40F27806C2F200065F
:102A60000021C5F20401304640F8141F4FF48031B4
:102A7000C0E901174FF480710A97C0E90377C0F8E5
:102A800014800183C0F81C9080F82070C0E90A7798
:102A900080F83090476380F83870FDF7EDFF28B17B
:102AA000EFF3108072B600BFFEE700BF2020C1F236
:102AB000F04005900620CDE906077F20089004200D
:102AC00006F11405CDE9090705A92846FDF716FD0D
:102AD00020B1EFF3108072B6FEE700BFFFF746FDAE
:102AE0004EF6FC50CEF200000168322241F08071B7
:102AF000016041F20000CEF20000016841F00101E6
:102B0000016040F2F001C2F200012846FEF716F91A
:102B10004FF090404FF400610122FEF771FB002559
:102B200003E000BF3220FEF775FA4FF47A70FEF72B
:102B300071FA70880128F5D1204610210122FEF794
:102B40005FFB4FF4FA60FEF765FA20461021012280
:102B5000FEF756FB4FF4FA60FEF75CFA20461021B0
:102B60000122FEF74DFB4FF4FA60FEF753FA2046C0
:102B700010210122FEF744FB4FF4FA60FEF74AFAF7
:102B8000204610210122FEF73BFB4FF4FA60FEF7CE
:102B900041FA7580C6E7000021F0004201F00043D1
:102BA000A2F16052B2F5801F28BFD2F17F6C0BD921
:102BB0005FEA001C43EAC20242EB507018BF704744
:102BC00028BF20F001007047B2F5801FBCBF184637
:102BD00070474FEA410C1CF5001F02D2084600F076
:102BE000F0BA70B500F09EF900000089FFF7F6BF5B
:102BF0004FF00040A0F580007047000010B591EA4A
:102C0000030F48BF83F0004300F1E881841A71EBA1
:102C1000030C05D2121943EB0C03001B61EB0C01F2
:102C20004FEA1154A4EB135CDFF81CE11EEA430FDA
:102C300018BF9EEA445F00F0748021EA045123EA41
:102C40000E0343F48013DCF1200E32D322FA0CFE83
:102C500010EB0E0023FA0CFE41EB0E01CCF1200E1E
:102C600003FA0EFE10EB0E00CCF1200E51F1000124
:102C7000B1F5801F32D201EB045112FA0EF2BDE819
:102C8000104058BF7047401C38BF5FEA420218BF6F
:102C90007047002814BF20F0010041F100014FEA05
:102CA000410313F5001F38BF7047A1F1C04100F088
:102CB00087B9012A43EB0302ACF1200CDCF11F0EB3
:102CC00032BF4FF0000E23FA0CF310EB030041EB80
:102CD0000451B4EB115FD0D0A1EB045101F5801188
:102CE000490801EB04515FEA30000ED350F10000B7
:102CF00038BF12FA0EFE08D1BDE81040C9E7401CEB
:102D000038BF5FEA4202CAD1C3E7BDE810404FEACC
:102D1000410313F5001F38BF7047A1F1C04100F017
:102D20004FB99EEA445F08D011EA5E0FBDE810403B
:102D300004BF01F0004100207047BDE8104070B5AD
:102D400000F0F0F864FBBE3E0000E0FF4FEA4103F4
:102D50004FEA5353A3F58063D3F11E03C8BFD3F1E9
:102D6000210C0CDD4FF0004242EAC12242EA5052EF
:102D700032FA03FC8CEAE17CACEBE1707047102B7B
:102D8000C4BF0020704703F5787CBCF1FF3F04D03E
:102D90006FF0004282EA2100704770B500F0C2F87F
:102DA0004992248000207047F2E7B0FA80F310FACD
:102DB00003F10AD0C3F11D0303F580634FEA035208
:102DC0004FEA415002EBD12170474FF000007047AD
:102DD00070B5DFF848C11CEA111E1EBF1CEA1315AE
:102DE0009EEA0C0F95EA0C0F00F06F8081EA030455
:102DF0004EEAD47EAE4421EA4C1123EA4C1341F44E
:102E0000801143F48013AEF17F7EA1FB024CA0FB46
:102E10000365361955EB0C05A1FB034C4CF100037F
:102E2000A0FB021C16EB0C06654153F1000309429E
:102E300018BF46F0010613F4007F0BD14FEA0331AF
:102E40004FEA053041EA155140EA165034036FF05D
:102E500003020AE04FEAC3214FEAC52041EA555177
:102E600040EA5650F4026FF0020202EB2E4201EBF0
:102E7000025585EACE710AD05FEA440C18BF24F0EF
:102E8000004450F1000041F1000120EAD47040F20A
:102E9000FE7C624500D270BDA84214BF4FF0804452
:102EA0004FF04044002E08BF0024BEF1806FA8BF41
:102EB000A1F1C041BDE8704080F2828001F1C041C3
:102EC00001F000414FF0000070470CEA13159EEA34
:102ED0000C0F18BF95EA0C0F06D081EA030E4FF0D5
:102EE00000000EF0004170BD00F01CF88900013EAA
:102EF00000F007B800F009B84FEA430C5FEA5C5CE9
:102F000008D081EA030100F05BB84FEA410C5FEAA8
:102F10005C5CF6D102494FF0000070470000FF07EB
:102F20000000F87F0EF1020E2EF0030E5EF8046B27
:102F3000364205D4012A43EB030515F5001F12D8CC
:102F4000012841EB010C1CF5001F0CD80ED14FEAF3
:102F5000D17C0CEB4C0C0CF1020C15F5001F08BFDA
:102F60004CEBD37C04E04FF0080C01E04FEAD37C3B
:102F70000CEB4C0526FA05F606F00706B6F1040C34
:102F800006D20EEB860CBDE870404CF0010C604799
:102F9000DFE80CF0090B02024FF00041A1F500211F
:102FA0004FF0000070BD19461046012851EB010496
:102FB00018BFD4F5001484BF002001F0004170BD9B
:102FC0000808A0F500114FEA3101704710B591EAE9
:102FD000030F48BF83F000433FF518AE841A71EB2E
:102FE000030C07D28CF0004C121943EB0C03001BAE
:102FF00061EB0C014FEA1154A4EB135CDFF8A4E180
:103000001EEA430F18BF9EEA445F00F0B48021EA35
:10301000045123EA6E035242C3EB6E0338BF5B1EBA
:10302000DCF1200E25D322FA0CFE10EB0E0043FA41
:103030000CFE41EB0E01CCF1200E03FA0EFE10EB5C
:103040000E00CCF1200E51F1000129D401EB045106
:1030500012FA0EF2BDE8104058BF7047401C1CBF6A
:10306000B2F1004F704700280CBF491C20F001004E
:10307000704712EB020E43EB030218BF4FF0010E34
:103080004EEA4202ACF1200CDCF11E0E56D943FA96
:103090000CFE10EB0E00CCF11E0E51F1FF31D5D518
:1030A0000EF1010E12FA0EFE404141EB010101EB5F
:1030B000445C5FEA5C5C10D901EB045110EBDE70FC
:1030C00038BFBEF1004FBDE8104018BF7047002860
:1030D0000CBF491C20F00100704734D24FEAD42CB9
:1030E00024F4006411F500111BD0B1FA81F20B3AFF
:1030F000A41AA41ED2F12003914030FA03F319431D
:10310000904001EBCC7101EB0451002CBDE8104064
:10311000A8BF704701F1C04101F000414FF000002D
:103120007047B0FA80F310FA03F102D1BDE8104005
:103130007047E41A173C4805C90AE2E701EB04515D
:10314000BDE81040704749104FEA300001EB0451D0
:10315000BDE8104002E04FF0000170474A0008BF90
:103160000042F8D0B2F5001F28BF704701F00041BF
:103170004FF0000070479EEA445F07D011EA5E0FEF
:10318000BDE8104004BF002100207047BDE810409A
:1031900070B5FFF7C7FE00BF40DFF63E104683F074
:1031A000004170470000E0FFF1EE100A4FF6FF719A
:1031B000C0F2C03120EA010040F04070E1EE100A98
:1031C0007047FF2141EAD050C00570470000000061
:1031D000000000000102030406070809A0860100A0
:1031E000400D0300801A060000350C0040420F001D
:1031F00080841E0000093D0000127A000024F400C3
:1032000000366E010048E801006CDC023F065B4FAF
:10321000666D7D077F6F00003832000800000020D7
:1032200018000000F00100085032000818000020CB
:103230008807000010020008015AA505822000003E
:1032400001000000010000001000000000093D0026
:040000050800018D61
:00000001FF
